:1000000019C018951895189518951895189518955C
:100010001895189518951895189518951895189578
:100020001895189518951895189518951895189568
:10003000189518958FEF8DBFC0E0E6EE4E2E84E048
:100040008EBFD3E0F2E05F2EA89584B7082E877F9D
:1000500084BF88E199278093600090936000EEEF61
:10006000F3E0A0E0B1E088278D933197E9F789E1CB
:100070008093C40080E08093C50088E18093C10034
:10008000662486E08093C20086E880937A0080E44C
:1000900080937C0080E087B9219A199A70917A0048
:1000A000706870937A006DD0A6E0B1E08C930091F7
:1000B0000601013009F001C003D0F5CFF894FFCF5D
:1000C00000917C00007F006000937C0071D0A0E074
:1000D000B1E08D939C9300917C00007F01600093C0
:1000E0007C0066D0A2E0B1E08D939C9300917C00EF
:1000F000007F026000937C005BD0A4E0B1E08D93B0
:100100009C93A0E0B1E011968C91A7E0B1E08C93B4
:10011000A0E0B1E08C91A8E0B1E08C93A2E0B1E066
:1001200011968C91A9E0B1E08C93A2E0B1E08C91A2
:10013000AAE0B1E08C93A4E0B1E011968C91ABE021
:10014000B1E08C93A4E0B1E08C91ACE0B1E08C9391
:10015000A7E0B1E08C911CD0A8E0B1E08C9118D060
:10016000A9E0B1E08C9114D0AAE0B1E08C9110D05C
:10017000ABE0B1E08C910CD0ACE0B1E08C9108D058
:1001800008958091C00087FFFCCF8091C60008953C
:100190000090C00005FEFCCF8093C6000895319703
:1001A000F1F70895689462F80895E89462F8089564
:1001B00070917A00706470937A0000907A0006FC67
:1001C000FCCF70917A00706470937A0000907A008E
:0E01D00006FCFCCF8091780090917900089594
:00000001FF
